{"abi":[{"type":"constructor","inputs":[{"name":"_token","type":"address","internalType":"address"}],"stateMutability":"nonpayable"},{"type":"function","name":"split","inputs":[{"name":"to","type":"address[]","internalType":"address[]"},{"name":"amt","type":"uint256[]","internalType":"uint256[]"}],"outputs":[],"stateMutability":"nonpayable"},{"type":"function","name":"token","inputs":[],"outputs":[{"name":"","type":"address","internalType":"contract IERC20"}],"stateMutability":"view"}],"bytecode":{"object":"0x608060405234801561000f575f5ffd5b50604051610c4f380380610c4f833981810160405281019061003191906100d4565b805f5f6101000a81548173ffffffffffffffffffffffffffffffffffffffff021916908373ffffffffffffffffffffffffffffffffffffffff160217905550506100ff565b5f5ffd5b5f73ffffffffffffffffffffffffffffffffffffffff82169050919050565b5f6100a38261007a565b9050919050565b6100b381610099565b81146100bd575f5ffd5b50565b5f815190506100ce816100aa565b92915050565b5f602082840312156100e9576100e8610076565b5b5f6100f6848285016100c0565b91505092915050565b610b438061010c5f395ff3fe608060405234801561000f575f5ffd5b5060043610610034575f3560e01c80632a526d5814610038578063fc0c546a14610054575b5f5ffd5b610052600480360381019061004d91906106b4565b610072565b005b61005c6103e2565b6040516100699190610785565b60405180910390f35b80518251146100b6576040517f08c379a00000000000000000000000000000000000000000000000000000000081526004016100ad906107f8565b60405180910390fd5b5f5f5f90505b82518110156100fa578281815181106100d8576100d7610816565b5b6020026020010151826100eb9190610870565b915080806001019150506100bc565b50805f5f9054906101000a900473ffffffffffffffffffffffffffffffffffffffff1673ffffffffffffffffffffffffffffffffffffffff1663dd62ed3e33306040518363ffffffff1660e01b81526004016101579291906108b2565b602060405180830381865afa158015610172573d5f5f3e3d5ffd5b505050506040513d601f19601f8201168201806040525081019061019691906108ed565b10156101d7576040517f08c379a00000000000000000000000000000000000000000000000000000000081526004016101ce90610962565b60405180910390fd5b805f5f9054906101000a900473ffffffffffffffffffffffffffffffffffffffff1673ffffffffffffffffffffffffffffffffffffffff166370a08231336040518263ffffffff1660e01b81526004016102319190610980565b602060405180830381865afa15801561024c573d5f5f3e3d5ffd5b505050506040513d601f19601f8201168201806040525081019061027091906108ed565b10156102b1576040517f08c379a00000000000000000000000000000000000000000000000000000000081526004016102a8906109e3565b60405180910390fd5b5f5f90505b83518110156103dc575f5f9054906101000a900473ffffffffffffffffffffffffffffffffffffffff1673ffffffffffffffffffffffffffffffffffffffff166323b872dd3386848151811061030f5761030e610816565b5b602002602001015186858151811061032a57610329610816565b5b60200260200101516040518463ffffffff1660e01b815260040161035093929190610a10565b6020604051808303815f875af115801561036c573d5f5f3e3d5ffd5b505050506040513d601f19601f820116820180604052508101906103909190610a7a565b6103cf576040517f08c379a00000000000000000000000000000000000000000000000000000000081526004016103c690610aef565b60405180910390fd5b80806001019150506102b6565b50505050565b5f5f9054906101000a900473ffffffffffffffffffffffffffffffffffffffff1681565b5f604051905090565b5f5ffd5b5f5ffd5b5f5ffd5b5f601f19601f8301169050919050565b7f4e487b71000000000000000000000000000000000000000000000000000000005f52604160045260245ffd5b6104618261041b565b810181811067ffffffffffffffff821117156104805761047f61042b565b5b80604052505050565b5f610492610406565b905061049e8282610458565b919050565b5f67ffffffffffffffff8211156104bd576104bc61042b565b5b602082029050602081019050919050565b5f5ffd5b5f73ffffffffffffffffffffffffffffffffffffffff82169050919050565b5f6104fb826104d2565b9050919050565b61050b816104f1565b8114610515575f5ffd5b50565b5f8135905061052681610502565b92915050565b5f61053e610539846104a3565b610489565b90508083825260208201905060208402830185811115610561576105606104ce565b5b835b8181101561058a57806105768882610518565b845260208401935050602081019050610563565b5050509392505050565b5f82601f8301126105a8576105a7610417565b5b81356105b884826020860161052c565b91505092915050565b5f67ffffffffffffffff8211156105db576105da61042b565b5b602082029050602081019050919050565b5f819050919050565b6105fe816105ec565b8114610608575f5ffd5b50565b5f81359050610619816105f5565b92915050565b5f61063161062c846105c1565b610489565b90508083825260208201905060208402830185811115610654576106536104ce565b5b835b8181101561067d5780610669888261060b565b845260208401935050602081019050610656565b5050509392505050565b5f82601f83011261069b5761069a610417565b5b81356106ab84826020860161061f565b91505092915050565b5f5f604083850312156106ca576106c961040f565b5b5f83013567ffffffffffffffff8111156106e7576106e6610413565b5b6106f385828601610594565b925050602083013567ffffffffffffffff81111561071457610713610413565b5b61072085828601610687565b9150509250929050565b5f819050919050565b5f61074d610748610743846104d2565b61072a565b6104d2565b9050919050565b5f61075e82610733565b9050919050565b5f61076f82610754565b9050919050565b61077f81610765565b82525050565b5f6020820190506107985f830184610776565b92915050565b5f82825260208201905092915050565b7f6c656e206d69736d6174636800000000000000000000000000000000000000005f82015250565b5f6107e2600c8361079e565b91506107ed826107ae565b602082019050919050565b5f6020820190508181035f83015261080f816107d6565b9050919050565b7f4e487b71000000000000000000000000000000000000000000000000000000005f52603260045260245ffd5b7f4e487b71000000000000000000000000000000000000000000000000000000005f52601160045260245ffd5b5f61087a826105ec565b9150610885836105ec565b925082820190508082111561089d5761089c610843565b5b92915050565b6108ac816104f1565b82525050565b5f6040820190506108c55f8301856108a3565b6108d260208301846108a3565b9392505050565b5f815190506108e7816105f5565b92915050565b5f602082840312156109025761090161040f565b5b5f61090f848285016108d9565b91505092915050565b7f6e6f20616c6c6f77616e636500000000000000000000000000000000000000005f82015250565b5f61094c600c8361079e565b915061095782610918565b602082019050919050565b5f6020820190508181035f83015261097981610940565b9050919050565b5f6020820190506109935f8301846108a3565b92915050565b7f6e6f2062616c616e6365000000000000000000000000000000000000000000005f82015250565b5f6109cd600a8361079e565b91506109d882610999565b602082019050919050565b5f6020820190508181035f8301526109fa816109c1565b9050919050565b610a0a816105ec565b82525050565b5f606082019050610a235f8301866108a3565b610a3060208301856108a3565b610a3d6040830184610a01565b949350505050565b5f8115159050919050565b610a5981610a45565b8114610a63575f5ffd5b50565b5f81519050610a7481610a50565b92915050565b5f60208284031215610a8f57610a8e61040f565b5b5f610a9c84828501610a66565b91505092915050565b7f7472616e73666572206661696c000000000000000000000000000000000000005f82015250565b5f610ad9600d8361079e565b9150610ae482610aa5565b602082019050919050565b5f6020820190508181035f830152610b0681610acd565b905091905056fea264697066735822122031e0f2734dd2543ccb78c29eb40a59c202dd4fedc7af3eeadd4647d40ad298d464736f6c634300081e0033","linkReferences":{}},"methodIdentifiers":{"split(address[],uint256[])":"2a526d58","token()":"fc0c546a"},"id":21}